{
  "contractName": "PaymentProcessor",
  "abi": [
    {
      "inputs": [
        {
          "internalType": "address",
          "name": "_coinAddress",
          "type": "address"
        },
        {
          "internalType": "address",
          "name": "_sessionManagerAddress",
          "type": "address"
        }
      ],
      "stateMutability": "nonpayable",
      "type": "constructor"
    },
    {
      "inputs": [
        {
          "internalType": "address",
          "name": "owner",
          "type": "address"
        }
      ],
      "name": "OwnableInvalidOwner",
      "type": "error"
    },
    {
      "inputs": [
        {
          "internalType": "address",
          "name": "account",
          "type": "address"
        }
      ],
      "name": "OwnableUnauthorizedAccount",
      "type": "error"
    },
    {
      "anonymous": false,
      "inputs": [
        {
          "indexed": true,
          "internalType": "address",
          "name": "user",
          "type": "address"
        },
        {
          "indexed": false,
          "internalType": "uint256",
          "name": "amount",
          "type": "uint256"
        }
      ],
      "name": "CoinsSold",
      "type": "event"
    },
    {
      "anonymous": false,
      "inputs": [
        {
          "indexed": false,
          "internalType": "string",
          "name": "message",
          "type": "string"
        }
      ],
      "name": "LogMessage",
      "type": "event"
    },
    {
      "anonymous": false,
      "inputs": [
        {
          "indexed": true,
          "internalType": "address",
          "name": "previousOwner",
          "type": "address"
        },
        {
          "indexed": true,
          "internalType": "address",
          "name": "newOwner",
          "type": "address"
        }
      ],
      "name": "OwnershipTransferred",
      "type": "event"
    },
    {
      "anonymous": false,
      "inputs": [
        {
          "indexed": true,
          "internalType": "address",
          "name": "from",
          "type": "address"
        },
        {
          "indexed": true,
          "internalType": "address",
          "name": "to",
          "type": "address"
        },
        {
          "indexed": false,
          "internalType": "uint256",
          "name": "totalAmount",
          "type": "uint256"
        },
        {
          "indexed": false,
          "internalType": "uint256",
          "name": "feeAmount",
          "type": "uint256"
        },
        {
          "indexed": false,
          "internalType": "uint256",
          "name": "recipientAmount",
          "type": "uint256"
        }
      ],
      "name": "PaymentMade",
      "type": "event"
    },
    {
      "inputs": [],
      "name": "owner",
      "outputs": [
        {
          "internalType": "address",
          "name": "",
          "type": "address"
        }
      ],
      "stateMutability": "view",
      "type": "function"
    },
    {
      "inputs": [],
      "name": "renounceOwnership",
      "outputs": [],
      "stateMutability": "nonpayable",
      "type": "function"
    },
    {
      "inputs": [],
      "name": "sessionManager",
      "outputs": [
        {
          "internalType": "contract SessionManager",
          "name": "",
          "type": "address"
        }
      ],
      "stateMutability": "view",
      "type": "function"
    },
    {
      "inputs": [
        {
          "internalType": "address",
          "name": "newOwner",
          "type": "address"
        }
      ],
      "name": "transferOwnership",
      "outputs": [],
      "stateMutability": "nonpayable",
      "type": "function"
    },
    {
      "inputs": [],
      "name": "ttCoin",
      "outputs": [
        {
          "internalType": "contract TTCoin",
          "name": "",
          "type": "address"
        }
      ],
      "stateMutability": "view",
      "type": "function"
    },
    {
      "inputs": [
        {
          "internalType": "uint256",
          "name": "x",
          "type": "uint256"
        }
      ],
      "name": "hi",
      "outputs": [
        {
          "internalType": "uint256",
          "name": "",
          "type": "uint256"
        }
      ],
      "stateMutability": "pure",
      "type": "function"
    },
    {
      "inputs": [
        {
          "internalType": "address",
          "name": "recipient",
          "type": "address"
        },
        {
          "internalType": "uint256",
          "name": "amount",
          "type": "uint256"
        }
      ],
      "name": "pay",
      "outputs": [],
      "stateMutability": "nonpayable",
      "type": "function"
    },
    {
      "inputs": [
        {
          "internalType": "uint256",
          "name": "amount",
          "type": "uint256"
        }
      ],
      "name": "sellCoins",
      "outputs": [],
      "stateMutability": "nonpayable",
      "type": "function"
    }
  ],
  "bytecode": "0x60c060405234801562000010575f80fd5b50604051620014b2380380620014b28339818101604052810190620000369190620002fd565b335f73ffffffffffffffffffffffffffffffffffffffff168173ffffffffffffffffffffffffffffffffffffffff1603620000aa575f6040517f1e4fbdf7000000000000000000000000000000000000000000000000000000008152600401620000a1919062000353565b60405180910390fd5b620000bb81620001d760201b60201c565b505f73ffffffffffffffffffffffffffffffffffffffff168273ffffffffffffffffffffffffffffffffffffffff16141580156200012557505f73ffffffffffffffffffffffffffffffffffffffff168173ffffffffffffffffffffffffffffffffffffffff1614155b62000167576040517f08c379a00000000000000000000000000000000000000000000000000000000081526004016200015e90620003cc565b60405180910390fd5b8173ffffffffffffffffffffffffffffffffffffffff1660808173ffffffffffffffffffffffffffffffffffffffff16815250508073ffffffffffffffffffffffffffffffffffffffff1660a08173ffffffffffffffffffffffffffffffffffffffff16815250505050620003ec565b5f805f9054906101000a900473ffffffffffffffffffffffffffffffffffffffff169050815f806101000a81548173ffffffffffffffffffffffffffffffffffffffff021916908373ffffffffffffffffffffffffffffffffffffffff1602179055508173ffffffffffffffffffffffffffffffffffffffff168173ffffffffffffffffffffffffffffffffffffffff167f8be0079c531659141344cd1fd0a4f28419497f9722a3daafe3b4186f6b6457e060405160405180910390a35050565b5f80fd5b5f73ffffffffffffffffffffffffffffffffffffffff82169050919050565b5f620002c7826200029c565b9050919050565b620002d981620002bb565b8114620002e4575f80fd5b50565b5f81519050620002f781620002ce565b92915050565b5f806040838503121562000316576200031562000298565b5b5f6200032585828601620002e7565b92505060206200033885828601620002e7565b9150509250929050565b6200034d81620002bb565b82525050565b5f602082019050620003685f83018462000342565b92915050565b5f82825260208201905092915050565b7f496e76616c6964206164647265737365730000000000000000000000000000005f82015250565b5f620003b46011836200036e565b9150620003c1826200037e565b602082019050919050565b5f6020820190508181035f830152620003e581620003a6565b9050919050565b60805160a051611081620004315f395f8181610271015261034301525f818161018801528181610213015281816104be01528181610564015261060901526110815ff3fe608060405234801561000f575f80fd5b5060043610610086575f3560e01c80638da5cb5b116100595780638da5cb5b146100fe578063b7b13f791461011c578063c40768761461013a578063f2fde38b1461015657610086565b80634cf1b41d1461008a57806351a4cd73146100ba57806363af7c7d146100d6578063715018a6146100f4575b5f80fd5b6100a4600480360381019061009f91906108be565b610172565b6040516100b191906108f8565b60405180910390f35b6100d460048036038101906100cf91906108be565b610186565b005b6100de610211565b6040516100eb919061098b565b60405180910390f35b6100fc610235565b005b610106610248565b60405161011391906109c4565b60405180910390f35b61012461026f565b60405161013191906109fd565b60405180910390f35b610154600480360381019061014f9190610a40565b610293565b005b610170600480360381019061016b9190610a7e565b6106b4565b005b5f818261017f9190610ad6565b9050919050565b7f000000000000000000000000000000000000000000000000000000000000000073ffffffffffffffffffffffffffffffffffffffff166379cc679033836040518363ffffffff1660e01b81526004016101e1929190610b09565b5f604051808303815f87803b1580156101f8575f80fd5b505af115801561020a573d5f803e3d5ffd5b5050505050565b7f000000000000000000000000000000000000000000000000000000000000000081565b61023d610738565b6102465f6107bf565b565b5f805f9054906101000a900473ffffffffffffffffffffffffffffffffffffffff16905090565b7f000000000000000000000000000000000000000000000000000000000000000081565b7f96561394bac381230de4649200e8831afcab1f451881bbade9ef209f6dd304806040516102c090610b8a565b60405180910390a15f811161030a576040517f08c379a000000000000000000000000000000000000000000000000000000000815260040161030190610c18565b60405180910390fd5b7f96561394bac381230de4649200e8831afcab1f451881bbade9ef209f6dd3048060405161033790610ca6565b60405180910390a15f807f000000000000000000000000000000000000000000000000000000000000000073ffffffffffffffffffffffffffffffffffffffff166375d8c365856040518263ffffffff1660e01b815260040161039a91906109c4565b6040805180830381865afa1580156103b4573d5f803e3d5ffd5b505050506040513d601f19601f820116820180604052508101906103d89190610d32565b915091507f96561394bac381230de4649200e8831afcab1f451881bbade9ef209f6dd3048060405161040990610de0565b60405180910390a181610451576040517f08c379a000000000000000000000000000000000000000000000000000000000815260040161044890610e6e565b60405180910390fd5b7f96561394bac381230de4649200e8831afcab1f451881bbade9ef209f6dd3048060405161047e90610efc565b60405180910390a15f620186a08263ffffffff168561049d9190610f1a565b6104a79190610f88565b90505f81856104b69190610fb8565b90505f3390507f000000000000000000000000000000000000000000000000000000000000000073ffffffffffffffffffffffffffffffffffffffff166323b872dd8230896040518463ffffffff1660e01b815260040161051993929190610feb565b6020604051808303815f875af1158015610535573d5f803e3d5ffd5b505050506040513d601f19601f820116820180604052508101906105599190611020565b505f8211156105ff577f000000000000000000000000000000000000000000000000000000000000000073ffffffffffffffffffffffffffffffffffffffff1663a9059cbb88846040518363ffffffff1660e01b81526004016105bd929190610b09565b6020604051808303815f875af11580156105d9573d5f803e3d5ffd5b505050506040513d601f19601f820116820180604052508101906105fd9190611020565b505b5f8311156106ab577f000000000000000000000000000000000000000000000000000000000000000073ffffffffffffffffffffffffffffffffffffffff1663a9059cbb61064b610248565b856040518363ffffffff1660e01b8152600401610669929190610b09565b6020604051808303815f875af1158015610685573d5f803e3d5ffd5b505050506040513d601f19601f820116820180604052508101906106a99190611020565b505b50505050505050565b6106bc610738565b5f73ffffffffffffffffffffffffffffffffffffffff168173ffffffffffffffffffffffffffffffffffffffff160361072c575f6040517f1e4fbdf700000000000000000000000000000000000000000000000000000000815260040161072391906109c4565b60405180910390fd5b610735816107bf565b50565b610740610880565b73ffffffffffffffffffffffffffffffffffffffff1661075e610248565b73ffffffffffffffffffffffffffffffffffffffff16146107bd57610781610880565b6040517f118cdaa70000000000000000000000000000000000000000000000000000000081526004016107b491906109c4565b60405180910390fd5b565b5f805f9054906101000a900473ffffffffffffffffffffffffffffffffffffffff169050815f806101000a81548173ffffffffffffffffffffffffffffffffffffffff021916908373ffffffffffffffffffffffffffffffffffffffff1602179055508173ffffffffffffffffffffffffffffffffffffffff168173ffffffffffffffffffffffffffffffffffffffff167f8be0079c531659141344cd1fd0a4f28419497f9722a3daafe3b4186f6b6457e060405160405180910390a35050565b5f33905090565b5f80fd5b5f819050919050565b61089d8161088b565b81146108a7575f80fd5b50565b5f813590506108b881610894565b92915050565b5f602082840312156108d3576108d2610887565b5b5f6108e0848285016108aa565b91505092915050565b6108f28161088b565b82525050565b5f60208201905061090b5f8301846108e9565b92915050565b5f73ffffffffffffffffffffffffffffffffffffffff82169050919050565b5f819050919050565b5f61095361094e61094984610911565b610930565b610911565b9050919050565b5f61096482610939565b9050919050565b5f6109758261095a565b9050919050565b6109858161096b565b82525050565b5f60208201905061099e5f83018461097c565b92915050565b5f6109ae82610911565b9050919050565b6109be816109a4565b82525050565b5f6020820190506109d75f8301846109b5565b92915050565b5f6109e78261095a565b9050919050565b6109f7816109dd565b82525050565b5f602082019050610a105f8301846109ee565b92915050565b610a1f816109a4565b8114610a29575f80fd5b50565b5f81359050610a3a81610a16565b92915050565b5f8060408385031215610a5657610a55610887565b5b5f610a6385828601610a2c565b9250506020610a74858286016108aa565b9150509250929050565b5f60208284031215610a9357610a92610887565b5b5f610aa084828501610a2c565b91505092915050565b7f4e487b71000000000000000000000000000000000000000000000000000000005f52601160045260245ffd5b5f610ae08261088b565b9150610aeb8361088b565b9250828201905080821115610b0357610b02610aa9565b5b92915050565b5f604082019050610b1c5f8301856109b5565b610b2960208301846108e9565b9392505050565b5f82825260208201905092915050565b7f5061796d656e7450726f636573736f723a207061792063616c6c6564000000005f82015250565b5f610b74601c83610b30565b9150610b7f82610b40565b602082019050919050565b5f6020820190508181035f830152610ba181610b68565b9050919050565b7f5061796d656e7450726f636573736f723a20416d6f756e74206d7573742062655f8201527f2067726561746572207468616e207a65726f0000000000000000000000000000602082015250565b5f610c02603283610b30565b9150610c0d82610ba8565b604082019050919050565b5f6020820190508181035f830152610c2f81610bf6565b9050919050565b7f5061796d656e7450726f636573736f723a20416d6f756e742069732076616c695f8201527f6400000000000000000000000000000000000000000000000000000000000000602082015250565b5f610c90602183610b30565b9150610c9b82610c36565b604082019050919050565b5f6020820190508181035f830152610cbd81610c84565b9050919050565b5f8115159050919050565b610cd881610cc4565b8114610ce2575f80fd5b50565b5f81519050610cf381610ccf565b92915050565b5f63ffffffff82169050919050565b610d1181610cf9565b8114610d1b575f80fd5b50565b5f81519050610d2c81610d08565b92915050565b5f8060408385031215610d4857610d47610887565b5b5f610d5585828601610ce5565b9250506020610d6685828601610d1e565b9150509250929050565b7f5061796d656e7450726f636573736f723a20466574636865642073657373696f5f8201527f6e2064657461696c730000000000000000000000000000000000000000000000602082015250565b5f610dca602983610b30565b9150610dd582610d70565b604082019050919050565b5f6020820190508181035f830152610df781610dbe565b9050919050565b7f5061796d656e7450726f636573736f723a20526563697069656e74206973206e5f8201527f6f7420616363657074696e67207061796d656e74730000000000000000000000602082015250565b5f610e58603583610b30565b9150610e6382610dfe565b604082019050919050565b5f6020820190508181035f830152610e8581610e4c565b9050919050565b7f5061796d656e7450726f636573736f723a20526563697069656e7420736573735f8201527f696f6e2069732061637469766500000000000000000000000000000000000000602082015250565b5f610ee6602d83610b30565b9150610ef182610e8c565b604082019050919050565b5f6020820190508181035f830152610f1381610eda565b9050919050565b5f610f248261088b565b9150610f2f8361088b565b9250828202610f3d8161088b565b91508282048414831517610f5457610f53610aa9565b5b5092915050565b7f4e487b71000000000000000000000000000000000000000000000000000000005f52601260045260245ffd5b5f610f928261088b565b9150610f9d8361088b565b925082610fad57610fac610f5b565b5b828204905092915050565b5f610fc28261088b565b9150610fcd8361088b565b9250828203905081811115610fe557610fe4610aa9565b5b92915050565b5f606082019050610ffe5f8301866109b5565b61100b60208301856109b5565b61101860408301846108e9565b949350505050565b5f6020828403121561103557611034610887565b5b5f61104284828501610ce5565b9150509291505056fea26469706673582212206bbc158064c019f164f8a8ad715a6b1f25a298a702379882f13facef033e10f364736f6c63430008150033",
  "immutableReferences": {
    "944": [
      {
        "length": 32,
        "start": 392
      },
      {
        "length": 32,
        "start": 531
      },
      {
        "length": 32,
        "start": 1214
      },
      {
        "length": 32,
        "start": 1380
      },
      {
        "length": 32,
        "start": 1545
      }
    ],
    "947": [
      {
        "length": 32,
        "start": 625
      },
      {
        "length": 32,
        "start": 835
      }
    ]
  },
  "source": "// SPDX-License-Identifier: MIT\r\npragma solidity ^0.8.20;\r\n\r\nimport \"@openzeppelin/contracts/access/Ownable.sol\";\r\nimport \"./TTCoin.sol\";\r\nimport \"./SessionManager.sol\";\r\n\r\n/**\r\n * @title PaymentProcessor\r\n * @dev Handles user-to-user payments with revenue splitting and coin sell-backs.\r\n * This contract must be authorized in the TTCoin contract to function.\r\n */\r\ncontract PaymentProcessor is Ownable {\r\n    TTCoin public immutable ttCoin;\r\n    SessionManager public immutable sessionManager;\r\n\r\n    event LogMessage(string message);\r\n    event PaymentMade(\r\n        address indexed from,\r\n        address indexed to,\r\n        uint256 totalAmount,\r\n        uint256 feeAmount,\r\n        uint256 recipientAmount\r\n    );\r\n    event CoinsSold(address indexed user, uint256 amount);\r\n\r\n    constructor(\r\n        address _coinAddress,\r\n        address _sessionManagerAddress\r\n    ) Ownable(msg.sender) {\r\n        require(\r\n            _coinAddress != address(0) && _sessionManagerAddress != address(0),\r\n            \"Invalid addresses\"\r\n        );\r\n        ttCoin = TTCoin(_coinAddress);\r\n        sessionManager = SessionManager(_sessionManagerAddress);\r\n    }\r\n\r\n    function hi(uint x) public pure returns (uint) {\r\n        return x + x;\r\n    }\r\n\r\n    /**\r\n     * @dev Allows a user (sender) to pay another user (recipient).\r\n     * It checks for an active session, calculates the fee, and splits the payment.\r\n     * The sender must first approve this contract to spend their TTCoin.\r\n     */\r\n    function pay(address recipient, uint256 amount) public {\r\n        emit LogMessage(\"PaymentProcessor: pay called\");\r\n        require(\r\n            amount > 0,\r\n            \"PaymentProcessor: Amount must be greater than zero\"\r\n        );\r\n        emit LogMessage(\"PaymentProcessor: Amount is valid\");\r\n        // 1. Check if the recipient has an active session\r\n        (bool isActive, uint32 fee) = sessionManager.getSessionDetails(\r\n            recipient\r\n        );\r\n        emit LogMessage(\"PaymentProcessor: Fetched session details\");\r\n        require(\r\n            isActive,\r\n            \"PaymentProcessor: Recipient is not accepting payments\"\r\n        );\r\n\r\n        emit LogMessage(\"PaymentProcessor: Recipient session is active\");\r\n        // 2. Calculate fee and the recipient's share\r\n        uint256 feeAmount = (amount * fee) / 100000;\r\n        uint256 recipientAmount = amount - feeAmount;\r\n\r\n        address sender = msg.sender;\r\n\r\n        // 3. Pull the total amount from the sender to this contract.\r\n        // This is allowed because this contract is authorized in TTCoin.\r\n        ttCoin.transferFrom(sender, address(this), amount);\r\n\r\n        // 4. Distribute the funds from this contract.\r\n        if (recipientAmount > 0) {\r\n            ttCoin.transfer(recipient, recipientAmount);\r\n        }\r\n        if (feeAmount > 0) {\r\n            ttCoin.transfer(owner(), feeAmount);\r\n        }\r\n\r\n        // emit PaymentMade(sender, recipient, amount, feeAmount, recipientAmount);\r\n    }\r\n\r\n    /**\r\n     * @dev Allows a user to sell their coins back to the platform.\r\n     * This function burns the user's coins and emits an event for off-chain processing.\r\n     * The user must first approve this contract to spend their TTCoin.\r\n     */\r\n    function sellCoins(uint256 amount) public {\r\n        // require(\r\n        //     amount > 0,\r\n        //     \"PaymentProcessor: Amount must be greater than zero\"\r\n        // );\r\n\r\n        // This contract, being authorized, calls the burnFrom function on the coin contract.\r\n        ttCoin.burnFrom(msg.sender, amount);\r\n        // ttCoin.isAuthorized(address(this));\r\n\r\n        // emit CoinsSold(msg.sender, amount);\r\n    }\r\n}\r\n",
  "sourcePath": "C:\\Users\\yonge\\Desktop\\tiktok-techjam-nuts\\blockchain\\contracts\\PaymentProcessor.sol",
  "compiler": {
    "name": "solc",
    "version": "0.8.21+commit.d9974bed.Emscripten.clang"
  },
  "schemaVersion": "3.4.16",
  "updatedAt": "2025-08-30T00:56:41.437Z",
  "devdoc": {
    "details": "Handles user-to-user payments with revenue splitting and coin sell-backs. This contract must be authorized in the TTCoin contract to function.",
    "errors": {
      "OwnableInvalidOwner(address)": [
        {
          "details": "The owner is not a valid owner account. (eg. `address(0)`)"
        }
      ],
      "OwnableUnauthorizedAccount(address)": [
        {
          "details": "The caller account is not authorized to perform an operation."
        }
      ]
    },
    "kind": "dev",
    "methods": {
      "owner()": {
        "details": "Returns the address of the current owner."
      },
      "pay(address,uint256)": {
        "details": "Allows a user (sender) to pay another user (recipient). It checks for an active session, calculates the fee, and splits the payment. The sender must first approve this contract to spend their TTCoin."
      },
      "renounceOwnership()": {
        "details": "Leaves the contract without owner. It will not be possible to call `onlyOwner` functions. Can only be called by the current owner. NOTE: Renouncing ownership will leave the contract without an owner, thereby disabling any functionality that is only available to the owner."
      },
      "sellCoins(uint256)": {
        "details": "Allows a user to sell their coins back to the platform. This function burns the user's coins and emits an event for off-chain processing. The user must first approve this contract to spend their TTCoin."
      },
      "transferOwnership(address)": {
        "details": "Transfers ownership of the contract to a new account (`newOwner`). Can only be called by the current owner."
      }
    },
    "title": "PaymentProcessor",
    "version": 1
  },
  "userdoc": {
    "kind": "user",
    "methods": {},
    "version": 1
  }
}