{
  "contractName": "SessionManager",
  "abi": [
    {
      "inputs": [],
      "stateMutability": "nonpayable",
      "type": "constructor"
    },
    {
      "inputs": [
        {
          "internalType": "address",
          "name": "owner",
          "type": "address"
        }
      ],
      "name": "OwnableInvalidOwner",
      "type": "error"
    },
    {
      "inputs": [
        {
          "internalType": "address",
          "name": "account",
          "type": "address"
        }
      ],
      "name": "OwnableUnauthorizedAccount",
      "type": "error"
    },
    {
      "anonymous": false,
      "inputs": [
        {
          "indexed": true,
          "internalType": "address",
          "name": "previousOwner",
          "type": "address"
        },
        {
          "indexed": true,
          "internalType": "address",
          "name": "newOwner",
          "type": "address"
        }
      ],
      "name": "OwnershipTransferred",
      "type": "event"
    },
    {
      "anonymous": false,
      "inputs": [
        {
          "indexed": true,
          "internalType": "address",
          "name": "user",
          "type": "address"
        }
      ],
      "name": "SessionEnded",
      "type": "event"
    },
    {
      "anonymous": false,
      "inputs": [
        {
          "indexed": true,
          "internalType": "address",
          "name": "user",
          "type": "address"
        },
        {
          "indexed": false,
          "internalType": "uint32",
          "name": "feeRatio",
          "type": "uint32"
        }
      ],
      "name": "SessionStarted",
      "type": "event"
    },
    {
      "inputs": [],
      "name": "owner",
      "outputs": [
        {
          "internalType": "address",
          "name": "",
          "type": "address"
        }
      ],
      "stateMutability": "view",
      "type": "function"
    },
    {
      "inputs": [],
      "name": "renounceOwnership",
      "outputs": [],
      "stateMutability": "nonpayable",
      "type": "function"
    },
    {
      "inputs": [
        {
          "internalType": "address",
          "name": "",
          "type": "address"
        }
      ],
      "name": "sessions",
      "outputs": [
        {
          "internalType": "bool",
          "name": "isActive",
          "type": "bool"
        },
        {
          "internalType": "uint32",
          "name": "feeRatio",
          "type": "uint32"
        }
      ],
      "stateMutability": "view",
      "type": "function"
    },
    {
      "inputs": [
        {
          "internalType": "address",
          "name": "newOwner",
          "type": "address"
        }
      ],
      "name": "transferOwnership",
      "outputs": [],
      "stateMutability": "nonpayable",
      "type": "function"
    },
    {
      "inputs": [
        {
          "internalType": "address",
          "name": "user",
          "type": "address"
        },
        {
          "internalType": "uint32",
          "name": "feeRatio",
          "type": "uint32"
        }
      ],
      "name": "startSession",
      "outputs": [],
      "stateMutability": "nonpayable",
      "type": "function"
    },
    {
      "inputs": [
        {
          "internalType": "address",
          "name": "user",
          "type": "address"
        }
      ],
      "name": "endSession",
      "outputs": [],
      "stateMutability": "nonpayable",
      "type": "function"
    },
    {
      "inputs": [
        {
          "internalType": "address",
          "name": "user",
          "type": "address"
        }
      ],
      "name": "getSessionDetails",
      "outputs": [
        {
          "internalType": "bool",
          "name": "",
          "type": "bool"
        },
        {
          "internalType": "uint32",
          "name": "",
          "type": "uint32"
        }
      ],
      "stateMutability": "view",
      "type": "function"
    }
  ],
  "bytecode": "0x608060405234801561000f575f80fd5b50335f73ffffffffffffffffffffffffffffffffffffffff168173ffffffffffffffffffffffffffffffffffffffff1603610081575f6040517f1e4fbdf70000000000000000000000000000000000000000000000000000000081526004016100789190610196565b60405180910390fd5b6100908161009660201b60201c565b506101af565b5f805f9054906101000a900473ffffffffffffffffffffffffffffffffffffffff169050815f806101000a81548173ffffffffffffffffffffffffffffffffffffffff021916908373ffffffffffffffffffffffffffffffffffffffff1602179055508173ffffffffffffffffffffffffffffffffffffffff168173ffffffffffffffffffffffffffffffffffffffff167f8be0079c531659141344cd1fd0a4f28419497f9722a3daafe3b4186f6b6457e060405160405180910390a35050565b5f73ffffffffffffffffffffffffffffffffffffffff82169050919050565b5f61018082610157565b9050919050565b61019081610176565b82525050565b5f6020820190506101a95f830184610187565b92915050565b610aba806101bc5f395ff3fe608060405234801561000f575f80fd5b506004361061007b575f3560e01c80637a91a8db116100595780637a91a8db146100eb5780637ce02794146101075780638da5cb5b14610123578063f2fde38b146101415761007b565b8063431a1b971461007f578063715018a6146100b057806375d8c365146100ba575b5f80fd5b61009960048036038101906100949190610797565b61015d565b6040516100a79291906107fa565b60405180910390f35b6100b8610198565b005b6100d460048036038101906100cf9190610797565b6101ab565b6040516100e29291906107fa565b60405180910390f35b6101056004803603810190610100919061084b565b610249565b005b610121600480360381019061011c9190610797565b6103fe565b005b61012b61053f565b6040516101389190610898565b60405180910390f35b61015b60048036038101906101569190610797565b610566565b005b6001602052805f5260405f205f91509050805f015f9054906101000a900460ff1690805f0160019054906101000a900463ffffffff16905082565b6101a06105ea565b6101a95f610671565b565b5f805f60015f8573ffffffffffffffffffffffffffffffffffffffff1673ffffffffffffffffffffffffffffffffffffffff1681526020019081526020015f206040518060400160405290815f82015f9054906101000a900460ff161515151581526020015f820160019054906101000a900463ffffffff1663ffffffff1663ffffffff16815250509050805f015181602001519250925050915091565b6102516105ea565b5f73ffffffffffffffffffffffffffffffffffffffff168273ffffffffffffffffffffffffffffffffffffffff16036102bf576040517f08c379a00000000000000000000000000000000000000000000000000000000081526004016102b690610931565b60405180910390fd5b620186a08163ffffffff16111561030b576040517f08c379a0000000000000000000000000000000000000000000000000000000008152600401610302906109bf565b60405180910390fd5b60405180604001604052806001151581526020018263ffffffff1681525060015f8473ffffffffffffffffffffffffffffffffffffffff1673ffffffffffffffffffffffffffffffffffffffff1681526020019081526020015f205f820151815f015f6101000a81548160ff0219169083151502179055506020820151815f0160016101000a81548163ffffffff021916908363ffffffff1602179055509050508173ffffffffffffffffffffffffffffffffffffffff167f3b234ab1bead3e85c1fee81a038f441e29a55a7ec86c554970c3aca9585c544a826040516103f291906109dd565b60405180910390a25050565b6104066105ea565b60015f8273ffffffffffffffffffffffffffffffffffffffff1673ffffffffffffffffffffffffffffffffffffffff1681526020019081526020015f205f015f9054906101000a900460ff16610491576040517f08c379a000000000000000000000000000000000000000000000000000000000815260040161048890610a66565b60405180910390fd5b60015f8273ffffffffffffffffffffffffffffffffffffffff1673ffffffffffffffffffffffffffffffffffffffff1681526020019081526020015f205f8082015f6101000a81549060ff02191690555f820160016101000a81549063ffffffff021916905550508073ffffffffffffffffffffffffffffffffffffffff167f49fa048463c11173dbc8b2ab8d09ebe6c38c168737d5a622b65b8086a01cbd0660405160405180910390a250565b5f805f9054906101000a900473ffffffffffffffffffffffffffffffffffffffff16905090565b61056e6105ea565b5f73ffffffffffffffffffffffffffffffffffffffff168173ffffffffffffffffffffffffffffffffffffffff16036105de575f6040517f1e4fbdf70000000000000000000000000000000000000000000000000000000081526004016105d59190610898565b60405180910390fd5b6105e781610671565b50565b6105f2610732565b73ffffffffffffffffffffffffffffffffffffffff1661061061053f565b73ffffffffffffffffffffffffffffffffffffffff161461066f57610633610732565b6040517f118cdaa70000000000000000000000000000000000000000000000000000000081526004016106669190610898565b60405180910390fd5b565b5f805f9054906101000a900473ffffffffffffffffffffffffffffffffffffffff169050815f806101000a81548173ffffffffffffffffffffffffffffffffffffffff021916908373ffffffffffffffffffffffffffffffffffffffff1602179055508173ffffffffffffffffffffffffffffffffffffffff168173ffffffffffffffffffffffffffffffffffffffff167f8be0079c531659141344cd1fd0a4f28419497f9722a3daafe3b4186f6b6457e060405160405180910390a35050565b5f33905090565b5f80fd5b5f73ffffffffffffffffffffffffffffffffffffffff82169050919050565b5f6107668261073d565b9050919050565b6107768161075c565b8114610780575f80fd5b50565b5f813590506107918161076d565b92915050565b5f602082840312156107ac576107ab610739565b5b5f6107b984828501610783565b91505092915050565b5f8115159050919050565b6107d6816107c2565b82525050565b5f63ffffffff82169050919050565b6107f4816107dc565b82525050565b5f60408201905061080d5f8301856107cd565b61081a60208301846107eb565b9392505050565b61082a816107dc565b8114610834575f80fd5b50565b5f8135905061084581610821565b92915050565b5f806040838503121561086157610860610739565b5b5f61086e85828601610783565b925050602061087f85828601610837565b9150509250929050565b6108928161075c565b82525050565b5f6020820190506108ab5f830184610889565b92915050565b5f82825260208201905092915050565b7f53657373696f6e4d616e616765723a2043616e6e6f7420757365207a65726f205f8201527f6164647265737300000000000000000000000000000000000000000000000000602082015250565b5f61091b6027836108b1565b9150610926826108c1565b604082019050919050565b5f6020820190508181035f8301526109488161090f565b9050919050565b7f53657373696f6e4d616e616765723a204665652063616e6e6f742065786365655f8201527f6420313030250000000000000000000000000000000000000000000000000000602082015250565b5f6109a96026836108b1565b91506109b48261094f565b604082019050919050565b5f6020820190508181035f8301526109d68161099d565b9050919050565b5f6020820190506109f05f8301846107eb565b92915050565b7f53657373696f6e4d616e616765723a2053657373696f6e206e6f7420616374695f8201527f7665000000000000000000000000000000000000000000000000000000000000602082015250565b5f610a506022836108b1565b9150610a5b826109f6565b604082019050919050565b5f6020820190508181035f830152610a7d81610a44565b905091905056fea2646970667358221220311beec6bde1d9895e61a93ba584e9fc5953acd397b9f0e3ceb0de538d8d8f4264736f6c63430008150033",
  "immutableReferences": {},
  "source": "// SPDX-License-Identifier: MIT\r\npragma solidity ^0.8.20;\r\n\r\nimport \"@openzeppelin/contracts/access/Ownable.sol\";\r\n\r\n/**\r\n * @title SessionManager\r\n * @dev Manages payment-receiving sessions for users.\r\n * The owner can start and stop sessions, setting a fee percentage for each.\r\n */\r\ncontract SessionManager is Ownable {\r\n    struct Session {\r\n        bool isActive;\r\n        uint32 feeRatio; // Share * 100,000 e.g., 1000 for 1% fee\r\n    }\r\n\r\n    mapping(address => Session) public sessions;\r\n\r\n    event SessionStarted(address indexed user, uint32 feeRatio);\r\n    event SessionEnded(address indexed user);\r\n\r\n    constructor() Ownable(msg.sender) {}\r\n\r\n    /**\r\n     * @dev Starts a payment receiving session for a user. Only callable by the owner.\r\n     * @param user The address of the user who will receive payments.\r\n     * @param feeRatio The fee ratio (0-100000) to be taken from payments.\r\n     */\r\n    function startSession(address user, uint32 feeRatio) public onlyOwner {\r\n        require(user != address(0), \"SessionManager: Cannot use zero address\");\r\n        require(feeRatio <= 100000, \"SessionManager: Fee cannot exceed 100%\");\r\n\r\n        sessions[user] = Session({isActive: true, feeRatio: feeRatio});\r\n\r\n        emit SessionStarted(user, feeRatio);\r\n    }\r\n\r\n    /**\r\n     * @dev Ends a payment receiving session for a user. Only callable by the owner.\r\n     * @param user The address of the user whose session will be ended.\r\n     */\r\n    function endSession(address user) public onlyOwner {\r\n        require(sessions[user].isActive, \"SessionManager: Session not active\");\r\n        delete sessions[user]; // Deletes the struct, setting isActive to false.\r\n        emit SessionEnded(user);\r\n    }\r\n\r\n    /**\r\n     * @dev Gets the session details for a user.\r\n     * @return A boolean indicating if the session is active and the fee percentage.\r\n     */\r\n    function getSessionDetails(\r\n        address user\r\n    ) public view returns (bool, uint32) {\r\n        Session memory session = sessions[user];\r\n        return (session.isActive, session.feeRatio);\r\n    }\r\n}\r\n",
  "sourcePath": "C:\\Users\\yonge\\Desktop\\tiktok-techjam-nuts\\blockchain\\contracts\\SessionManager.sol",
  "compiler": {
    "name": "solc",
    "version": "0.8.21+commit.d9974bed.Emscripten.clang"
  },
  "schemaVersion": "3.4.16",
  "updatedAt": "2025-08-30T00:56:41.442Z",
  "devdoc": {
    "details": "Manages payment-receiving sessions for users. The owner can start and stop sessions, setting a fee percentage for each.",
    "errors": {
      "OwnableInvalidOwner(address)": [
        {
          "details": "The owner is not a valid owner account. (eg. `address(0)`)"
        }
      ],
      "OwnableUnauthorizedAccount(address)": [
        {
          "details": "The caller account is not authorized to perform an operation."
        }
      ]
    },
    "kind": "dev",
    "methods": {
      "endSession(address)": {
        "details": "Ends a payment receiving session for a user. Only callable by the owner.",
        "params": {
          "user": "The address of the user whose session will be ended."
        }
      },
      "getSessionDetails(address)": {
        "details": "Gets the session details for a user.",
        "returns": {
          "_0": "A boolean indicating if the session is active and the fee percentage."
        }
      },
      "owner()": {
        "details": "Returns the address of the current owner."
      },
      "renounceOwnership()": {
        "details": "Leaves the contract without owner. It will not be possible to call `onlyOwner` functions. Can only be called by the current owner. NOTE: Renouncing ownership will leave the contract without an owner, thereby disabling any functionality that is only available to the owner."
      },
      "startSession(address,uint32)": {
        "details": "Starts a payment receiving session for a user. Only callable by the owner.",
        "params": {
          "feeRatio": "The fee ratio (0-100000) to be taken from payments.",
          "user": "The address of the user who will receive payments."
        }
      },
      "transferOwnership(address)": {
        "details": "Transfers ownership of the contract to a new account (`newOwner`). Can only be called by the current owner."
      }
    },
    "title": "SessionManager",
    "version": 1
  },
  "userdoc": {
    "kind": "user",
    "methods": {},
    "version": 1
  }
}