{
  "contractName": "TTCoin",
  "abi": [
    {
      "inputs": [],
      "stateMutability": "nonpayable",
      "type": "constructor"
    },
    {
      "inputs": [
        {
          "internalType": "address",
          "name": "spender",
          "type": "address"
        },
        {
          "internalType": "uint256",
          "name": "allowance",
          "type": "uint256"
        },
        {
          "internalType": "uint256",
          "name": "needed",
          "type": "uint256"
        }
      ],
      "name": "ERC20InsufficientAllowance",
      "type": "error"
    },
    {
      "inputs": [
        {
          "internalType": "address",
          "name": "sender",
          "type": "address"
        },
        {
          "internalType": "uint256",
          "name": "balance",
          "type": "uint256"
        },
        {
          "internalType": "uint256",
          "name": "needed",
          "type": "uint256"
        }
      ],
      "name": "ERC20InsufficientBalance",
      "type": "error"
    },
    {
      "inputs": [
        {
          "internalType": "address",
          "name": "approver",
          "type": "address"
        }
      ],
      "name": "ERC20InvalidApprover",
      "type": "error"
    },
    {
      "inputs": [
        {
          "internalType": "address",
          "name": "receiver",
          "type": "address"
        }
      ],
      "name": "ERC20InvalidReceiver",
      "type": "error"
    },
    {
      "inputs": [
        {
          "internalType": "address",
          "name": "sender",
          "type": "address"
        }
      ],
      "name": "ERC20InvalidSender",
      "type": "error"
    },
    {
      "inputs": [
        {
          "internalType": "address",
          "name": "spender",
          "type": "address"
        }
      ],
      "name": "ERC20InvalidSpender",
      "type": "error"
    },
    {
      "inputs": [
        {
          "internalType": "address",
          "name": "owner",
          "type": "address"
        }
      ],
      "name": "OwnableInvalidOwner",
      "type": "error"
    },
    {
      "inputs": [
        {
          "internalType": "address",
          "name": "account",
          "type": "address"
        }
      ],
      "name": "OwnableUnauthorizedAccount",
      "type": "error"
    },
    {
      "anonymous": false,
      "inputs": [
        {
          "indexed": true,
          "internalType": "address",
          "name": "owner",
          "type": "address"
        },
        {
          "indexed": true,
          "internalType": "address",
          "name": "spender",
          "type": "address"
        },
        {
          "indexed": false,
          "internalType": "uint256",
          "name": "value",
          "type": "uint256"
        }
      ],
      "name": "Approval",
      "type": "event"
    },
    {
      "anonymous": false,
      "inputs": [
        {
          "indexed": true,
          "internalType": "address",
          "name": "contractAddress",
          "type": "address"
        }
      ],
      "name": "ContractAuthorizationRevoked",
      "type": "event"
    },
    {
      "anonymous": false,
      "inputs": [
        {
          "indexed": true,
          "internalType": "address",
          "name": "contractAddress",
          "type": "address"
        }
      ],
      "name": "ContractAuthorized",
      "type": "event"
    },
    {
      "anonymous": false,
      "inputs": [
        {
          "indexed": true,
          "internalType": "address",
          "name": "previousOwner",
          "type": "address"
        },
        {
          "indexed": true,
          "internalType": "address",
          "name": "newOwner",
          "type": "address"
        }
      ],
      "name": "OwnershipTransferred",
      "type": "event"
    },
    {
      "anonymous": false,
      "inputs": [
        {
          "indexed": true,
          "internalType": "address",
          "name": "from",
          "type": "address"
        },
        {
          "indexed": true,
          "internalType": "address",
          "name": "to",
          "type": "address"
        },
        {
          "indexed": false,
          "internalType": "uint256",
          "name": "value",
          "type": "uint256"
        }
      ],
      "name": "Transfer",
      "type": "event"
    },
    {
      "inputs": [
        {
          "internalType": "address",
          "name": "owner",
          "type": "address"
        },
        {
          "internalType": "address",
          "name": "spender",
          "type": "address"
        }
      ],
      "name": "allowance",
      "outputs": [
        {
          "internalType": "uint256",
          "name": "",
          "type": "uint256"
        }
      ],
      "stateMutability": "view",
      "type": "function"
    },
    {
      "inputs": [
        {
          "internalType": "address",
          "name": "spender",
          "type": "address"
        },
        {
          "internalType": "uint256",
          "name": "value",
          "type": "uint256"
        }
      ],
      "name": "approve",
      "outputs": [
        {
          "internalType": "bool",
          "name": "",
          "type": "bool"
        }
      ],
      "stateMutability": "nonpayable",
      "type": "function"
    },
    {
      "inputs": [
        {
          "internalType": "address",
          "name": "account",
          "type": "address"
        }
      ],
      "name": "balanceOf",
      "outputs": [
        {
          "internalType": "uint256",
          "name": "",
          "type": "uint256"
        }
      ],
      "stateMutability": "view",
      "type": "function"
    },
    {
      "inputs": [],
      "name": "name",
      "outputs": [
        {
          "internalType": "string",
          "name": "",
          "type": "string"
        }
      ],
      "stateMutability": "view",
      "type": "function"
    },
    {
      "inputs": [],
      "name": "owner",
      "outputs": [
        {
          "internalType": "address",
          "name": "",
          "type": "address"
        }
      ],
      "stateMutability": "view",
      "type": "function"
    },
    {
      "inputs": [],
      "name": "renounceOwnership",
      "outputs": [],
      "stateMutability": "nonpayable",
      "type": "function"
    },
    {
      "inputs": [],
      "name": "symbol",
      "outputs": [
        {
          "internalType": "string",
          "name": "",
          "type": "string"
        }
      ],
      "stateMutability": "view",
      "type": "function"
    },
    {
      "inputs": [],
      "name": "totalSupply",
      "outputs": [
        {
          "internalType": "uint256",
          "name": "",
          "type": "uint256"
        }
      ],
      "stateMutability": "view",
      "type": "function"
    },
    {
      "inputs": [
        {
          "internalType": "address",
          "name": "to",
          "type": "address"
        },
        {
          "internalType": "uint256",
          "name": "value",
          "type": "uint256"
        }
      ],
      "name": "transfer",
      "outputs": [
        {
          "internalType": "bool",
          "name": "",
          "type": "bool"
        }
      ],
      "stateMutability": "nonpayable",
      "type": "function"
    },
    {
      "inputs": [
        {
          "internalType": "address",
          "name": "newOwner",
          "type": "address"
        }
      ],
      "name": "transferOwnership",
      "outputs": [],
      "stateMutability": "nonpayable",
      "type": "function"
    },
    {
      "inputs": [],
      "name": "decimals",
      "outputs": [
        {
          "internalType": "uint8",
          "name": "",
          "type": "uint8"
        }
      ],
      "stateMutability": "view",
      "type": "function"
    },
    {
      "inputs": [
        {
          "internalType": "address",
          "name": "to",
          "type": "address"
        },
        {
          "internalType": "uint256",
          "name": "amount",
          "type": "uint256"
        }
      ],
      "name": "mint",
      "outputs": [],
      "stateMutability": "nonpayable",
      "type": "function"
    },
    {
      "inputs": [
        {
          "internalType": "address",
          "name": "from",
          "type": "address"
        },
        {
          "internalType": "uint256",
          "name": "amount",
          "type": "uint256"
        }
      ],
      "name": "burnFrom",
      "outputs": [],
      "stateMutability": "nonpayable",
      "type": "function"
    },
    {
      "inputs": [
        {
          "internalType": "address",
          "name": "contractAddress",
          "type": "address"
        }
      ],
      "name": "authorizeContract",
      "outputs": [],
      "stateMutability": "nonpayable",
      "type": "function"
    },
    {
      "inputs": [
        {
          "internalType": "address",
          "name": "contractAddress",
          "type": "address"
        }
      ],
      "name": "revokeContractAuthorization",
      "outputs": [],
      "stateMutability": "nonpayable",
      "type": "function"
    },
    {
      "inputs": [
        {
          "internalType": "address",
          "name": "contractAddress",
          "type": "address"
        }
      ],
      "name": "isAuthorized",
      "outputs": [
        {
          "internalType": "bool",
          "name": "",
          "type": "bool"
        }
      ],
      "stateMutability": "view",
      "type": "function"
    },
    {
      "inputs": [
        {
          "internalType": "address",
          "name": "from",
          "type": "address"
        },
        {
          "internalType": "address",
          "name": "to",
          "type": "address"
        },
        {
          "internalType": "uint256",
          "name": "amount",
          "type": "uint256"
        }
      ],
      "name": "transferFrom",
      "outputs": [
        {
          "internalType": "bool",
          "name": "",
          "type": "bool"
        }
      ],
      "stateMutability": "nonpayable",
      "type": "function"
    }
  ],
  "bytecode": "0x608060405234801562000010575f80fd5b50336040518060400160405280600681526020017f5454436f696e00000000000000000000000000000000000000000000000000008152506040518060400160405280600381526020017f545443000000000000000000000000000000000000000000000000000000000081525081600390816200008f919062000456565b508060049081620000a1919062000456565b5050505f73ffffffffffffffffffffffffffffffffffffffff168173ffffffffffffffffffffffffffffffffffffffff160362000117575f6040517f1e4fbdf70000000000000000000000000000000000000000000000000000000081526004016200010e91906200057d565b60405180910390fd5b62000128816200012f60201b60201c565b5062000598565b5f60055f9054906101000a900473ffffffffffffffffffffffffffffffffffffffff1690508160055f6101000a81548173ffffffffffffffffffffffffffffffffffffffff021916908373ffffffffffffffffffffffffffffffffffffffff1602179055508173ffffffffffffffffffffffffffffffffffffffff168173ffffffffffffffffffffffffffffffffffffffff167f8be0079c531659141344cd1fd0a4f28419497f9722a3daafe3b4186f6b6457e060405160405180910390a35050565b5f81519050919050565b7f4e487b71000000000000000000000000000000000000000000000000000000005f52604160045260245ffd5b7f4e487b71000000000000000000000000000000000000000000000000000000005f52602260045260245ffd5b5f60028204905060018216806200026e57607f821691505b60208210810362000284576200028362000229565b5b50919050565b5f819050815f5260205f209050919050565b5f6020601f8301049050919050565b5f82821b905092915050565b5f60088302620002e87fffffffffffffffffffffffffffffffffffffffffffffffffffffffffffffffff82620002ab565b620002f48683620002ab565b95508019841693508086168417925050509392505050565b5f819050919050565b5f819050919050565b5f6200033e6200033862000332846200030c565b62000315565b6200030c565b9050919050565b5f819050919050565b62000359836200031e565b62000371620003688262000345565b848454620002b7565b825550505050565b5f90565b6200038762000379565b620003948184846200034e565b505050565b5b81811015620003bb57620003af5f826200037d565b6001810190506200039a565b5050565b601f8211156200040a57620003d4816200028a565b620003df846200029c565b81016020851015620003ef578190505b62000407620003fe856200029c565b83018262000399565b50505b505050565b5f82821c905092915050565b5f6200042c5f19846008026200040f565b1980831691505092915050565b5f6200044683836200041b565b9150826002028217905092915050565b6200046182620001f2565b67ffffffffffffffff8111156200047d576200047c620001fc565b5b62000489825462000256565b62000496828285620003bf565b5f60209050601f831160018114620004cc575f8415620004b7578287015190505b620004c3858262000439565b86555062000532565b601f198416620004dc866200028a565b5f5b828110156200050557848901518255600182019150602085019450602081019050620004de565b8683101562000525578489015162000521601f8916826200041b565b8355505b6001600288020188555050505b505050505050565b5f73ffffffffffffffffffffffffffffffffffffffff82169050919050565b5f62000565826200053a565b9050919050565b620005778162000559565b82525050565b5f602082019050620005925f8301846200056c565b92915050565b61168a80620005a65f395ff3fe608060405234801561000f575f80fd5b5060043610610109575f3560e01c806370a08231116100a057806395d89b411161006f57806395d89b411461028f578063a9059cbb146102ad578063dd62ed3e146102dd578063f2fde38b1461030d578063fe9fbb801461032957610109565b806370a082311461021b578063715018a61461024b57806379cc6790146102555780638da5cb5b1461027157610109565b80632eda2089116100dc5780632eda2089146101a9578063313ce567146101c557806340c10f19146101e357806367561d93146101ff57610109565b806306fdde031461010d578063095ea7b31461012b57806318160ddd1461015b57806323b872dd14610179575b5f80fd5b610115610359565b60405161012291906111e7565b60405180910390f35b61014560048036038101906101409190611298565b6103e9565b60405161015291906112f0565b60405180910390f35b61016361040b565b6040516101709190611318565b60405180910390f35b610193600480360381019061018e9190611331565b610414565b6040516101a091906112f0565b60405180910390f35b6101c360048036038101906101be9190611381565b6104b4565b005b6101cd610556565b6040516101da91906113c7565b60405180910390f35b6101fd60048036038101906101f89190611298565b61055e565b005b61021960048036038101906102149190611381565b610574565b005b61023560048036038101906102309190611381565b610685565b6040516102429190611318565b60405180910390f35b6102536106ca565b005b61026f600480360381019061026a9190611298565b6106dd565b005b6102796106eb565b60405161028691906113ef565b60405180910390f35b610297610713565b6040516102a491906111e7565b60405180910390f35b6102c760048036038101906102c29190611298565b6107a3565b6040516102d491906112f0565b60405180910390f35b6102f760048036038101906102f29190611408565b6107c5565b6040516103049190611318565b60405180910390f35b61032760048036038101906103229190611381565b610847565b005b610343600480360381019061033e9190611381565b6108cb565b60405161035091906112f0565b60405180910390f35b60606003805461036890611473565b80601f016020809104026020016040519081016040528092919081815260200182805461039490611473565b80156103df5780601f106103b6576101008083540402835291602001916103df565b820191905f5260205f20905b8154815290600101906020018083116103c257829003601f168201915b5050505050905090565b5f806103f361091d565b9050610400818585610924565b600191505092915050565b5f600254905090565b5f60065f3373ffffffffffffffffffffffffffffffffffffffff1673ffffffffffffffffffffffffffffffffffffffff1681526020019081526020015f205f9054906101000a900460ff1661049e576040517f08c379a000000000000000000000000000000000000000000000000000000000815260040161049590611513565b60405180910390fd5b6104a9848484610936565b600190509392505050565b6104bc610a26565b5f60065f8373ffffffffffffffffffffffffffffffffffffffff1673ffffffffffffffffffffffffffffffffffffffff1681526020019081526020015f205f6101000a81548160ff0219169083151502179055508073ffffffffffffffffffffffffffffffffffffffff167fe0d28ac76905044604ec190a29551b76f73aceb85366393bff336af5345b8a5d60405160405180910390a250565b5f6006905090565b610566610a26565b6105708282610aad565b5050565b61057c610a26565b5f73ffffffffffffffffffffffffffffffffffffffff168173ffffffffffffffffffffffffffffffffffffffff16036105ea576040517f08c379a00000000000000000000000000000000000000000000000000000000081526004016105e1906115a1565b60405180910390fd5b600160065f8373ffffffffffffffffffffffffffffffffffffffff1673ffffffffffffffffffffffffffffffffffffffff1681526020019081526020015f205f6101000a81548160ff0219169083151502179055508073ffffffffffffffffffffffffffffffffffffffff167f8983a1f3c3cb45c24c8226b5b805e3b6eb49686530b808534b2a920129eff65160405160405180910390a250565b5f805f8373ffffffffffffffffffffffffffffffffffffffff1673ffffffffffffffffffffffffffffffffffffffff1681526020019081526020015f20549050919050565b6106d2610a26565b6106db5f610b2c565b565b6106e78282610bef565b5050565b5f60055f9054906101000a900473ffffffffffffffffffffffffffffffffffffffff16905090565b60606004805461072290611473565b80601f016020809104026020016040519081016040528092919081815260200182805461074e90611473565b80156107995780601f1061077057610100808354040283529160200191610799565b820191905f5260205f20905b81548152906001019060200180831161077c57829003601f168201915b5050505050905090565b5f806107ad61091d565b90506107ba818585610936565b600191505092915050565b5f60015f8473ffffffffffffffffffffffffffffffffffffffff1673ffffffffffffffffffffffffffffffffffffffff1681526020019081526020015f205f8373ffffffffffffffffffffffffffffffffffffffff1673ffffffffffffffffffffffffffffffffffffffff1681526020019081526020015f2054905092915050565b61084f610a26565b5f73ffffffffffffffffffffffffffffffffffffffff168173ffffffffffffffffffffffffffffffffffffffff16036108bf575f6040517f1e4fbdf70000000000000000000000000000000000000000000000000000000081526004016108b691906113ef565b60405180910390fd5b6108c881610b2c565b50565b5f60065f8373ffffffffffffffffffffffffffffffffffffffff1673ffffffffffffffffffffffffffffffffffffffff1681526020019081526020015f205f9054906101000a900460ff169050919050565b5f33905090565b6109318383836001610c6e565b505050565b5f73ffffffffffffffffffffffffffffffffffffffff168373ffffffffffffffffffffffffffffffffffffffff16036109a6575f6040517f96c6fd1e00000000000000000000000000000000000000000000000000000000815260040161099d91906113ef565b60405180910390fd5b5f73ffffffffffffffffffffffffffffffffffffffff168273ffffffffffffffffffffffffffffffffffffffff1603610a16575f6040517fec442f05000000000000000000000000000000000000000000000000000000008152600401610a0d91906113ef565b60405180910390fd5b610a21838383610e3d565b505050565b610a2e61091d565b73ffffffffffffffffffffffffffffffffffffffff16610a4c6106eb565b73ffffffffffffffffffffffffffffffffffffffff1614610aab57610a6f61091d565b6040517f118cdaa7000000000000000000000000000000000000000000000000000000008152600401610aa291906113ef565b60405180910390fd5b565b5f73ffffffffffffffffffffffffffffffffffffffff168273ffffffffffffffffffffffffffffffffffffffff1603610b1d575f6040517fec442f05000000000000000000000000000000000000000000000000000000008152600401610b1491906113ef565b60405180910390fd5b610b285f8383610e3d565b5050565b5f60055f9054906101000a900473ffffffffffffffffffffffffffffffffffffffff1690508160055f6101000a81548173ffffffffffffffffffffffffffffffffffffffff021916908373ffffffffffffffffffffffffffffffffffffffff1602179055508173ffffffffffffffffffffffffffffffffffffffff168173ffffffffffffffffffffffffffffffffffffffff167f8be0079c531659141344cd1fd0a4f28419497f9722a3daafe3b4186f6b6457e060405160405180910390a35050565b5f73ffffffffffffffffffffffffffffffffffffffff168273ffffffffffffffffffffffffffffffffffffffff1603610c5f575f6040517f96c6fd1e000000000000000000000000000000000000000000000000000000008152600401610c5691906113ef565b60405180910390fd5b610c6a825f83610e3d565b5050565b5f73ffffffffffffffffffffffffffffffffffffffff168473ffffffffffffffffffffffffffffffffffffffff1603610cde575f6040517fe602df05000000000000000000000000000000000000000000000000000000008152600401610cd591906113ef565b60405180910390fd5b5f73ffffffffffffffffffffffffffffffffffffffff168373ffffffffffffffffffffffffffffffffffffffff1603610d4e575f6040517f94280d62000000000000000000000000000000000000000000000000000000008152600401610d4591906113ef565b60405180910390fd5b8160015f8673ffffffffffffffffffffffffffffffffffffffff1673ffffffffffffffffffffffffffffffffffffffff1681526020019081526020015f205f8573ffffffffffffffffffffffffffffffffffffffff1673ffffffffffffffffffffffffffffffffffffffff1681526020019081526020015f20819055508015610e37578273ffffffffffffffffffffffffffffffffffffffff168473ffffffffffffffffffffffffffffffffffffffff167f8c5be1e5ebec7d5bd14f71427d1e84f3dd0314c0f7b2291e5b200ac8c7c3b92584604051610e2e9190611318565b60405180910390a35b50505050565b5f73ffffffffffffffffffffffffffffffffffffffff168373ffffffffffffffffffffffffffffffffffffffff1614158015610ea557505f73ffffffffffffffffffffffffffffffffffffffff168273ffffffffffffffffffffffffffffffffffffffff1614155b15610f345760065f3373ffffffffffffffffffffffffffffffffffffffff1673ffffffffffffffffffffffffffffffffffffffff1681526020019081526020015f205f9054906101000a900460ff16610f33576040517f08c379a0000000000000000000000000000000000000000000000000000000008152600401610f2a90611513565b60405180910390fd5b5b610f3f838383610f44565b505050565b5f73ffffffffffffffffffffffffffffffffffffffff168373ffffffffffffffffffffffffffffffffffffffff1603610f94578060025f828254610f8891906115ec565b92505081905550611062565b5f805f8573ffffffffffffffffffffffffffffffffffffffff1673ffffffffffffffffffffffffffffffffffffffff1681526020019081526020015f205490508181101561101d578381836040517fe450d38c0000000000000000000000000000000000000000000000000000000081526004016110149392919061161f565b60405180910390fd5b8181035f808673ffffffffffffffffffffffffffffffffffffffff1673ffffffffffffffffffffffffffffffffffffffff1681526020019081526020015f2081905550505b5f73ffffffffffffffffffffffffffffffffffffffff168273ffffffffffffffffffffffffffffffffffffffff16036110a9578060025f82825403925050819055506110f3565b805f808473ffffffffffffffffffffffffffffffffffffffff1673ffffffffffffffffffffffffffffffffffffffff1681526020019081526020015f205f82825401925050819055505b8173ffffffffffffffffffffffffffffffffffffffff168373ffffffffffffffffffffffffffffffffffffffff167fddf252ad1be2c89b69c2b068fc378daa952ba7f163c4a11628f55a4df523b3ef836040516111509190611318565b60405180910390a3505050565b5f81519050919050565b5f82825260208201905092915050565b5f5b83811015611194578082015181840152602081019050611179565b5f8484015250505050565b5f601f19601f8301169050919050565b5f6111b98261115d565b6111c38185611167565b93506111d3818560208601611177565b6111dc8161119f565b840191505092915050565b5f6020820190508181035f8301526111ff81846111af565b905092915050565b5f80fd5b5f73ffffffffffffffffffffffffffffffffffffffff82169050919050565b5f6112348261120b565b9050919050565b6112448161122a565b811461124e575f80fd5b50565b5f8135905061125f8161123b565b92915050565b5f819050919050565b61127781611265565b8114611281575f80fd5b50565b5f813590506112928161126e565b92915050565b5f80604083850312156112ae576112ad611207565b5b5f6112bb85828601611251565b92505060206112cc85828601611284565b9150509250929050565b5f8115159050919050565b6112ea816112d6565b82525050565b5f6020820190506113035f8301846112e1565b92915050565b61131281611265565b82525050565b5f60208201905061132b5f830184611309565b92915050565b5f805f6060848603121561134857611347611207565b5b5f61135586828701611251565b935050602061136686828701611251565b925050604061137786828701611284565b9150509250925092565b5f6020828403121561139657611395611207565b5b5f6113a384828501611251565b91505092915050565b5f60ff82169050919050565b6113c1816113ac565b82525050565b5f6020820190506113da5f8301846113b8565b92915050565b6113e98161122a565b82525050565b5f6020820190506114025f8301846113e0565b92915050565b5f806040838503121561141e5761141d611207565b5b5f61142b85828601611251565b925050602061143c85828601611251565b9150509250929050565b7f4e487b71000000000000000000000000000000000000000000000000000000005f52602260045260245ffd5b5f600282049050600182168061148a57607f821691505b60208210810361149d5761149c611446565b5b50919050565b7f5454436f696e3a2043616c6c6572206973206e6f7420617574686f72697a65645f8201527f20666f72207472616e7366657273000000000000000000000000000000000000602082015250565b5f6114fd602e83611167565b9150611508826114a3565b604082019050919050565b5f6020820190508181035f83015261152a816114f1565b9050919050565b7f5454436f696e3a2043616e6e6f7420617574686f72697a6520746865207a65725f8201527f6f20616464726573730000000000000000000000000000000000000000000000602082015250565b5f61158b602983611167565b915061159682611531565b604082019050919050565b5f6020820190508181035f8301526115b88161157f565b9050919050565b7f4e487b71000000000000000000000000000000000000000000000000000000005f52601160045260245ffd5b5f6115f682611265565b915061160183611265565b9250828201905080821115611619576116186115bf565b5b92915050565b5f6060820190506116325f8301866113e0565b61163f6020830185611309565b61164c6040830184611309565b94935050505056fea264697066735822122036a8da2dde54c90b2a4a9e1c0548db1ddba51eb30ae9528c415177073fd474c464736f6c63430008150033",
  "immutableReferences": {},
  "source": "// SPDX-License-Identifier: MIT\r\npragma solidity ^0.8.20;\r\n\r\nimport \"@openzeppelin/contracts/token/ERC20/ERC20.sol\";\r\nimport \"@openzeppelin/contracts/access/Ownable.sol\";\r\n\r\n/**\r\n * @title TTCoin\r\n * @dev An ERC20 token with transfer restrictions.\r\n * Only the owner and authorized contracts can initiate transfers.\r\n * This prevents users from trading coins directly with each other.\r\n */\r\ncontract TTCoin is ERC20, Ownable {\r\n    mapping(address => bool) private _authorizedContracts;\r\n\r\n    event ContractAuthorized(address indexed contractAddress);\r\n    event ContractAuthorizationRevoked(address indexed contractAddress);\r\n\r\n    function decimals() public view virtual override returns (uint8) {\r\n        return 6;\r\n    }\r\n\r\n    constructor() ERC20(\"TTCoin\", \"TTC\") Ownable(msg.sender) {}\r\n\r\n    /**\r\n     * @dev Mints new coins for a user. Can only be called by the contract owner.\r\n     * @param to The address that will receive the minted tokens.\r\n     * @param amount The amount of tokens to mint.\r\n     */\r\n    function mint(address to, uint256 amount) public onlyOwner {\r\n        _mint(to, amount);\r\n    }\r\n\r\n    /**\r\n     * @dev Burns a user's tokens. Designed to be called by an authorized contract\r\n     * (like PaymentProcessor) after the user has approved it.\r\n     * @param from The address whose tokens are being burned.\r\n     * @param amount The amount of tokens to burn.\r\n     */\r\n    function burnFrom(address from, uint256 amount) public {\r\n        // require(\r\n        //     _authorizedContracts[msg.sender],\r\n        //     \"TTCoin: Caller is not authorized\"\r\n        // );\r\n        // _spendAllowance(from, msg.sender, amount);\r\n        _burn(from, amount);\r\n    }\r\n\r\n    /**\r\n     * @dev Authorizes a contract to initiate token transfers. Only callable by the owner.\r\n     * @param contractAddress The address of the contract to authorize.\r\n     */\r\n    function authorizeContract(address contractAddress) public onlyOwner {\r\n        require(\r\n            contractAddress != address(0),\r\n            \"TTCoin: Cannot authorize the zero address\"\r\n        );\r\n        _authorizedContracts[contractAddress] = true;\r\n        emit ContractAuthorized(contractAddress);\r\n    }\r\n\r\n    /**\r\n     * @dev Revokes a contract's authorization. Only callable by the owner.\r\n     * @param contractAddress The address of the contract to de-authorize.\r\n     */\r\n    function revokeContractAuthorization(\r\n        address contractAddress\r\n    ) public onlyOwner {\r\n        _authorizedContracts[contractAddress] = false;\r\n        emit ContractAuthorizationRevoked(contractAddress);\r\n    }\r\n\r\n    /**\r\n     * @dev Public view function to check if a contract is authorized.\r\n     */\r\n    function isAuthorized(address contractAddress) public view returns (bool) {\r\n        return _authorizedContracts[contractAddress];\r\n    }\r\n\r\n    /**\r\n     * @dev Overrides the internal _update function to enforce transfer restrictions.\r\n     * Transfers are only allowed if initiated by an authorized contract.\r\n     * This prevents users from trading coins directly.\r\n     * Minting (from address(0)) and burning (to address(0)) are exempt from this check.\r\n     */\r\n    function _update(\r\n        address from,\r\n        address to,\r\n        uint256 value\r\n    ) internal override {\r\n        if (from != address(0) && to != address(0)) {\r\n            require(\r\n                _authorizedContracts[msg.sender],\r\n                \"TTCoin: Caller is not authorized for transfers\"\r\n            );\r\n        }\r\n        super._update(from, to, value);\r\n    }\r\n\r\n    /**\r\n     * @dev See {ERC20-transferFrom}.\r\n     *\r\n     * If the caller is an authorized contract, the allowance check is bypassed.\r\n     */\r\n    function transferFrom(\r\n        address from,\r\n        address to,\r\n        uint256 amount\r\n    ) public virtual override returns (bool) {\r\n        require(\r\n            _authorizedContracts[msg.sender],\r\n            \"TTCoin: Caller is not authorized for transfers\"\r\n        );\r\n        _transfer(from, to, amount);\r\n        return true;\r\n    }\r\n}\r\n",
  "sourcePath": "C:\\Users\\yonge\\Desktop\\tiktok-techjam-nuts\\blockchain\\contracts\\TTCoin.sol",
  "compiler": {
    "name": "solc",
    "version": "0.8.21+commit.d9974bed.Emscripten.clang"
  },
  "schemaVersion": "3.4.16",
  "updatedAt": "2025-08-30T00:56:41.452Z",
  "devdoc": {
    "details": "An ERC20 token with transfer restrictions. Only the owner and authorized contracts can initiate transfers. This prevents users from trading coins directly with each other.",
    "errors": {
      "ERC20InsufficientAllowance(address,uint256,uint256)": [
        {
          "details": "Indicates a failure with the `spender`s `allowance`. Used in transfers.",
          "params": {
            "allowance": "Amount of tokens a `spender` is allowed to operate with.",
            "needed": "Minimum amount required to perform a transfer.",
            "spender": "Address that may be allowed to operate on tokens without being their owner."
          }
        }
      ],
      "ERC20InsufficientBalance(address,uint256,uint256)": [
        {
          "details": "Indicates an error related to the current `balance` of a `sender`. Used in transfers.",
          "params": {
            "balance": "Current balance for the interacting account.",
            "needed": "Minimum amount required to perform a transfer.",
            "sender": "Address whose tokens are being transferred."
          }
        }
      ],
      "ERC20InvalidApprover(address)": [
        {
          "details": "Indicates a failure with the `approver` of a token to be approved. Used in approvals.",
          "params": {
            "approver": "Address initiating an approval operation."
          }
        }
      ],
      "ERC20InvalidReceiver(address)": [
        {
          "details": "Indicates a failure with the token `receiver`. Used in transfers.",
          "params": {
            "receiver": "Address to which tokens are being transferred."
          }
        }
      ],
      "ERC20InvalidSender(address)": [
        {
          "details": "Indicates a failure with the token `sender`. Used in transfers.",
          "params": {
            "sender": "Address whose tokens are being transferred."
          }
        }
      ],
      "ERC20InvalidSpender(address)": [
        {
          "details": "Indicates a failure with the `spender` to be approved. Used in approvals.",
          "params": {
            "spender": "Address that may be allowed to operate on tokens without being their owner."
          }
        }
      ],
      "OwnableInvalidOwner(address)": [
        {
          "details": "The owner is not a valid owner account. (eg. `address(0)`)"
        }
      ],
      "OwnableUnauthorizedAccount(address)": [
        {
          "details": "The caller account is not authorized to perform an operation."
        }
      ]
    },
    "events": {
      "Approval(address,address,uint256)": {
        "details": "Emitted when the allowance of a `spender` for an `owner` is set by a call to {approve}. `value` is the new allowance."
      },
      "Transfer(address,address,uint256)": {
        "details": "Emitted when `value` tokens are moved from one account (`from`) to another (`to`). Note that `value` may be zero."
      }
    },
    "kind": "dev",
    "methods": {
      "allowance(address,address)": {
        "details": "Returns the remaining number of tokens that `spender` will be allowed to spend on behalf of `owner` through {transferFrom}. This is zero by default. This value changes when {approve} or {transferFrom} are called."
      },
      "approve(address,uint256)": {
        "details": "See {IERC20-approve}. NOTE: If `value` is the maximum `uint256`, the allowance is not updated on `transferFrom`. This is semantically equivalent to an infinite approval. Requirements: - `spender` cannot be the zero address."
      },
      "authorizeContract(address)": {
        "details": "Authorizes a contract to initiate token transfers. Only callable by the owner.",
        "params": {
          "contractAddress": "The address of the contract to authorize."
        }
      },
      "balanceOf(address)": {
        "details": "Returns the value of tokens owned by `account`."
      },
      "burnFrom(address,uint256)": {
        "details": "Burns a user's tokens. Designed to be called by an authorized contract (like PaymentProcessor) after the user has approved it.",
        "params": {
          "amount": "The amount of tokens to burn.",
          "from": "The address whose tokens are being burned."
        }
      },
      "decimals()": {
        "details": "Returns the number of decimals used to get its user representation. For example, if `decimals` equals `2`, a balance of `505` tokens should be displayed to a user as `5.05` (`505 / 10 ** 2`). Tokens usually opt for a value of 18, imitating the relationship between Ether and Wei. This is the default value returned by this function, unless it's overridden. NOTE: This information is only used for _display_ purposes: it in no way affects any of the arithmetic of the contract, including {IERC20-balanceOf} and {IERC20-transfer}."
      },
      "isAuthorized(address)": {
        "details": "Public view function to check if a contract is authorized."
      },
      "mint(address,uint256)": {
        "details": "Mints new coins for a user. Can only be called by the contract owner.",
        "params": {
          "amount": "The amount of tokens to mint.",
          "to": "The address that will receive the minted tokens."
        }
      },
      "name()": {
        "details": "Returns the name of the token."
      },
      "owner()": {
        "details": "Returns the address of the current owner."
      },
      "renounceOwnership()": {
        "details": "Leaves the contract without owner. It will not be possible to call `onlyOwner` functions. Can only be called by the current owner. NOTE: Renouncing ownership will leave the contract without an owner, thereby disabling any functionality that is only available to the owner."
      },
      "revokeContractAuthorization(address)": {
        "details": "Revokes a contract's authorization. Only callable by the owner.",
        "params": {
          "contractAddress": "The address of the contract to de-authorize."
        }
      },
      "symbol()": {
        "details": "Returns the symbol of the token, usually a shorter version of the name."
      },
      "totalSupply()": {
        "details": "Returns the value of tokens in existence."
      },
      "transfer(address,uint256)": {
        "details": "See {IERC20-transfer}. Requirements: - `to` cannot be the zero address. - the caller must have a balance of at least `value`."
      },
      "transferFrom(address,address,uint256)": {
        "details": "See {ERC20-transferFrom}. If the caller is an authorized contract, the allowance check is bypassed."
      },
      "transferOwnership(address)": {
        "details": "Transfers ownership of the contract to a new account (`newOwner`). Can only be called by the current owner."
      }
    },
    "title": "TTCoin",
    "version": 1
  },
  "userdoc": {
    "kind": "user",
    "methods": {},
    "version": 1
  }
}